:100000000C9434000C9451000C9451000C94510049
:100010000C9451000C9451000C9451000C9451001C
:100020000C9451000C9451000C9451000C9451000C
:100030000C9451000C9451000C9451000C945100FC
:100040000C9451000C9451000C9451000C945100EC
:100050000C9451000C9451000C9451000C945100DC
:100060000C9451000C94510011241FBECFEFD8E026
:10007000DEBFCDBF11E0A0E0B1E0E8EBF6E002C0EA
:1000800005900D92A030B107D9F721E0A0E0B1E0D2
:1000900001C01D92A034B207E1F70E9495010C94B3
:1000A0005A030C94000081E08093B90080E38093B0
:1000B000B800089584EA8093BC00ECEBF0E0808106
:1000C0008823ECF708958093BB0084E88093BC00FC
:1000D000ECEBF0E080818823ECF70895811104C0F7
:1000E00084E88093BC0003C084EC8093BC00ECEBFC
:1000F000F0E080818823ECF78091BB00089584E9CB
:100100008093BC000895519A509888E18093C10073
:1001100086E08093C20087E690E09093C5008093CC
:10012000C4000895E0ECF0E0908195FFFDCF80934E
:10013000C6000895CF93DF93EC018881882331F0C6
:1001400021960E94920089918111FBCFDF91CF917E
:1001500008952FEF85EA9EE0215080409040E1F71E
:1001600000C000000E945A0080ED0E94630089E1F7
:100170000E94630087E00E9463000E947F000E944B
:100180005A0080ED0E9463008BE60E94630080E0CD
:100190000E9463000E947F000E945A0080ED0E942E
:1001A00063008BE10E94630088E10E9463000E946B
:1001B0007F000E945A0080ED0E9463008CE10E9443
:1001C000630088E10E9463000E947F000895CF933E
:1001D000DF930E945A0080ED0E9463008BE30E942F
:1001E00063000E945A0081ED0E94630080E00E943B
:1001F0006E00D82F0E947F000E945A0080ED0E945E
:1002000063008CE30E9463000E945A0081ED0E940B
:10021000630080E00E946E00C82F0E947F002C2F98
:1002200030E03D2BC90199230CF40F9695958795E5
:10023000959587959595879595958795DF91CF911C
:100240000895CF93DF930E945A0080ED0E946300CF
:100250008DE30E9463000E945A0081ED0E946300BA
:1002600080E00E946E00D82F0E947F000E945A00FA
:1002700080ED0E9463008EE30E9463000E945A009A
:1002800081ED0E94630080E00E946E00C82F0E94F2
:100290007F002C2F30E03D2BC90199230CF40F96E1
:1002A0009595879595958795959587959595879536
:1002B000DF91CF910895CF93DF930E945A0080ED94
:1002C0000E9463008FE30E9463000E945A0081ED48
:1002D0000E94630080E00E946E00D82F0E947F0081
:1002E0000E945A0080ED0E94630080E40E94630037
:1002F0000E945A0081ED0E94630080E00E946E001F
:10030000C82F0E947F002C2F30E03D2BC90199237C
:100310000CF40F9695958795959587959595879566
:1003200095958795DF91CF9108950E9453000E9483
:10033000A9000E9483000E94E7007C010E94210125
:100340008C010E945B01EC01EE9CB001EF9C700DF2
:10035000700D1124772304F4009FC001019F900DBC
:10036000900D1124992304F4CC9FC001CD9F900DD2
:10037000900D1124992304F4EE9CB001EF9C700DB4
:10038000700D112477231CF4719561957109009FFC
:10039000C001019F900D900D112499231CF491959B
:1003A00081959109680F791FCC9FC001CD9F900D59
:1003B000900D112499231CF4919581959109680F52
:1003C000791F072E000C880B990B0E9463020E9474
:1003D000CD024B015C014AE060E371E0C7010E947D
:1003E00025034AE060E271E0C8010E9425034AE06B
:1003F00060E171E0CE010E942503C501B4010E94B5
:100400002B02DC01CB014AE060E071E00E94250391
:1004100080E091E00E949A008CE70E9492004AE0FE
:1004200060E171E0CE010E94250380E391E00E942B
:100430009A008CE20E94920080E291E00E949A0071
:100440008CE20E94920080E191E00E949A008AE092
:100450000E94920070CF0E9432026894B1110C94F5
:10046000C10208950E94A60288F09F5798F0B92F04
:100470009927B751B0F0E1F0660F771F881F991FD9
:100480001AF0BA95C9F714C0B13091F00E94C002B9
:10049000B1E008950C94C002672F782F8827B85FC9
:1004A00039F0B93FCCF3869577956795B395D9F731
:1004B0003EF490958095709561957F4F8F4F9F4F3B
:1004C0000895E89409C097FB3EF490958095709547
:1004D00061957F4F8F4F9F4F9923A9F0F92F96E990
:1004E000BB279395F695879577956795B795F11105
:1004F000F8CFFAF4BB0F11F460FF1BC06F5F7F4FA2
:100500008F4F9F4F16C0882311F096E911C07723B3
:1005100021F09EE8872F762F05C0662371F096E8BC
:10052000862F70E060E02AF09A95660F771F881F8B
:10053000DAF7880F9695879597F9089557FD9058A3
:10054000440F551F59F05F3F71F04795880F97FB97
:10055000991F61F09F3F79F0879508951216130651
:100560001406551FF2CF4695F1DF08C01616170680
:100570001806991FF1CF86957105610508940895B5
:10058000E894BB2766277727CB0197F9089519F4DC
:1005900016F40C941B030C940D030E94A602B8F3EE
:1005A0009923C9F3B6F39F57550B87FF0E941E038B
:1005B0000024A0E640EA900180585695979528F4CB
:1005C000805C660F771F881F20F0261737074807C3
:1005D00030F4621B730B840B202931294A2BA6951A
:1005E00017940794202531254A2758F7660F771F5F
:1005F000881F20F026173707480730F4620B730B6B
:10060000840B200D311D411DA09581F7B901842F68
:100610009158880F9695879508959F3F31F0915096
:1006200020F4879577956795B795880F911D9695D6
:10063000879597F908959FEF80EC08959150504069
:10064000660F771F881FD2F70895BB274A3031F411
:10065000992322F4BDE2909581959F4F0C9431032C
:10066000BB27FB015527AA27880F991FAA1FA4178C
:1006700010F0A41B83955051B9F7A05DAA3308F080
:10068000A95DA193009779F7B111B1931192CB01B4
:100690000C944A03DC01FC01672F71917723E1F789
:1006A000329704C07C916D9370836291AE17BF073F
:0806B000C8F30895F894FFCF90
:00000001FF
